{
  "contractName": "Promise",
  "abi": [
    {
      "anonymous": false,
      "inputs": [
        {
          "indexed": false,
          "internalType": "uint256",
          "name": "id",
          "type": "uint256"
        }
      ],
      "name": "ServiceCreated",
      "type": "event"
    },
    {
      "constant": false,
      "inputs": [
        {
          "internalType": "uint256",
          "name": "payment",
          "type": "uint256"
        },
        {
          "internalType": "uint256",
          "name": "period",
          "type": "uint256"
        },
        {
          "internalType": "address",
          "name": "user",
          "type": "address"
        },
        {
          "internalType": "address",
          "name": "provider",
          "type": "address"
        }
      ],
      "name": "createService",
      "outputs": [],
      "payable": false,
      "stateMutability": "nonpayable",
      "type": "function"
    },
    {
      "constant": false,
      "inputs": [
        {
          "internalType": "uint256",
          "name": "id",
          "type": "uint256"
        }
      ],
      "name": "provideDeposit",
      "outputs": [],
      "payable": true,
      "stateMutability": "payable",
      "type": "function"
    },
    {
      "constant": false,
      "inputs": [
        {
          "internalType": "uint256",
          "name": "id",
          "type": "uint256"
        }
      ],
      "name": "providePrepayment",
      "outputs": [],
      "payable": true,
      "stateMutability": "payable",
      "type": "function"
    },
    {
      "constant": false,
      "inputs": [
        {
          "internalType": "uint256",
          "name": "id",
          "type": "uint256"
        }
      ],
      "name": "provideTask",
      "outputs": [],
      "payable": false,
      "stateMutability": "nonpayable",
      "type": "function"
    },
    {
      "constant": false,
      "inputs": [
        {
          "internalType": "uint256",
          "name": "id",
          "type": "uint256"
        }
      ],
      "name": "withdrawMoney",
      "outputs": [],
      "payable": false,
      "stateMutability": "nonpayable",
      "type": "function"
    }
  ],
  "bytecode": "0x60806040526000805534801561001457600080fd5b50610ad7806100246000396000f3fe60806040526004361061004a5760003560e01c8063439b034c1461004f57806351d3ad001461007d5780635487692114610102578063831afde41461013d578063a81b6ccb1461016b575b600080fd5b61007b6004803603602081101561006557600080fd5b81019080803590602001909291905050506101a6565b005b34801561008957600080fd5b50610100600480360360808110156100a057600080fd5b810190808035906020019092919080359060200190929190803573ffffffffffffffffffffffffffffffffffffffff169060200190929190803573ffffffffffffffffffffffffffffffffffffffff16906020019092919050505061029b565b005b34801561010e57600080fd5b5061013b6004803603602081101561012557600080fd5b8101908080359060200190929190505050610454565b005b6101696004803603602081101561015357600080fd5b81019080803590602001909291905050506105a8565b005b34801561017757600080fd5b506101a46004803603602081101561018e57600080fd5b810190808035906020019092919050505061069e565b005b6001600082815260200190815260200160002060040160009054906101000a900473ffffffffffffffffffffffffffffffffffffffff1673ffffffffffffffffffffffffffffffffffffffff163373ffffffffffffffffffffffffffffffffffffffff161461027d576040517f08c379a00000000000000000000000000000000000000000000000000000000081526004018080602001828103825260198152602001807f4d7573742062652073656e642062792074686520757365722e0000000000000081525060200191505060405180910390fd5b34600160008381526020019081526020016000206002018190555050565b6102b160016000546108eb90919063ffffffff16565b5060405180610100016040528085815260200184815260200160008152602001600081526020018373ffffffffffffffffffffffffffffffffffffffff1681526020018273ffffffffffffffffffffffffffffffffffffffff168152602001600081526020016000151581525060016000805481526020019081526020016000206000820151816000015560208201518160010155604082015181600201556060820151816003015560808201518160040160006101000a81548173ffffffffffffffffffffffffffffffffffffffff021916908373ffffffffffffffffffffffffffffffffffffffff16021790555060a08201518160050160006101000a81548173ffffffffffffffffffffffffffffffffffffffff021916908373ffffffffffffffffffffffffffffffffffffffff16021790555060c0820151816006015560e08201518160070160006101000a81548160ff0219169083151502179055509050507f9e57b21f2c507a712e59a0f79a5edad91583d196f27a455f19276a78b25835c76000546040518082815260200191505060405180910390a150505050565b6001600082815260200190815260200160002060050160009054906101000a900473ffffffffffffffffffffffffffffffffffffffff1673ffffffffffffffffffffffffffffffffffffffff163373ffffffffffffffffffffffffffffffffffffffff161461052b576040517f08c379a000000000000000000000000000000000000000000000000000000000815260040180806020018281038252601d8152602001807f4e6565647320746f20626520736572766963652070726f76696465722e00000081525060200191505060405180910390fd5b600061056c600160008481526020019081526020016000206006015460016000858152602001908152602001600020600301546108eb90919063ffffffff16565b90503373ffffffffffffffffffffffffffffffffffffffff166108fc829081150290604051600060405180830381858888f19350505050505050565b6001600082815260200190815260200160002060050160009054906101000a900473ffffffffffffffffffffffffffffffffffffffff1673ffffffffffffffffffffffffffffffffffffffff163373ffffffffffffffffffffffffffffffffffffffff161461067f576040517f08c379a000000000000000000000000000000000000000000000000000000000815260040180806020018281038252601d8152602001807f4e6565647320746f20626520736572766963652070726f76696465722e00000081525060200191505060405180910390fd5b3460016000805481526020019081526020016000206006018190555050565b6001600082815260200190815260200160002060040160009054906101000a900473ffffffffffffffffffffffffffffffffffffffff1673ffffffffffffffffffffffffffffffffffffffff163373ffffffffffffffffffffffffffffffffffffffff16148061076f57506001600082815260200190815260200160002060050160009054906101000a900473ffffffffffffffffffffffffffffffffffffffff1673ffffffffffffffffffffffffffffffffffffffff163373ffffffffffffffffffffffffffffffffffffffff16145b6107c4576040517f08c379a0000000000000000000000000000000000000000000000000000000008152600401808060200182810382526025815260200180610a7e6025913960400191505060405180910390fd5b60006001600083815260200190815260200160002060020154905060006001600084815260200190815260200160002060000154905080821015610870576040517f08c379a000000000000000000000000000000000000000000000000000000000815260040180806020018281038252601d8152602001807f546f6f206c6974746c65207061796d656e742072656d61696e696e672e00000081525060200191505060405180910390fd5b60006001600085815260200190815260200160002060030154905061089e828461097390919063ffffffff16565b60016000868152602001908152602001600020600201819055506108cb82826108eb90919063ffffffff16565b600160008681526020019081526020016000206003018190555050505050565b600080828401905083811015610969576040517f08c379a000000000000000000000000000000000000000000000000000000000815260040180806020018281038252601b8152602001807f536166654d6174683a206164646974696f6e206f766572666c6f77000000000081525060200191505060405180910390fd5b8091505092915050565b60006109b583836040518060400160405280601e81526020017f536166654d6174683a207375627472616374696f6e206f766572666c6f7700008152506109bd565b905092915050565b6000838311158290610a6a576040517f08c379a00000000000000000000000000000000000000000000000000000000081526004018080602001828103825283818151815260200191508051906020019080838360005b83811015610a2f578082015181840152602081019050610a14565b50505050905090810190601f168015610a5c5780820380516001836020036101000a031916815260200191505b509250505060405180910390fd5b506000838503905080915050939250505056fe4d7573742062652073656e64206279207468652075736572206f722070726f76696465722ea265627a7a72315820e05f6ddab5d983574cd79a3975d32321a6c19f54afca712bd62b2ebb3bd643be64736f6c634300050c0032",
  "source": "pragma solidity >=0.4.21 <0.7.0;\n\nimport \"@openzeppelin/contracts/math/SafeMath.sol\";\n\ncontract Promise {\n    using SafeMath for uint;\n\n    // the unique service id\n    uint serviceId = 0;\n\n    // mapping from a service id to the service\n    mapping(uint => Service) services;\n\n    // defines a service\n    struct Service {\n        uint payment; // payment for a single round\n        uint period; // period prepayment is active\n        uint remaining_payment; // stores how much prepayment is still in the contract\n        uint transferred_payment; // stores how much payments are already assinged to the service provider\n        address user; // address of the user\n        address provider; // address of service provider\n        uint deposit; // deposit paid by service provider\n        bool cheated; // true if service provider cheats throughout providing actions\n    }\n\n    event ServiceCreated(uint id);\n\n    function createService(\n        uint payment,\n        uint period,\n        address user,\n        address provider\n    ) public {\n        serviceId.add(1);\n\n        services[serviceId] = Service(\n            payment,\n            period,\n            0,\n            0,\n            user,\n            provider,\n            0,\n            false\n        );\n\n        emit ServiceCreated(serviceId);\n    }\n\n    function provideDeposit(uint id) public payable {\n        require(msg.sender == services[id].provider, \"Needs to be service provider.\");\n\n        services[serviceId].deposit = msg.value;\n    }\n\n    function providePrepayment(uint id) public payable {\n        require(msg.sender == services[id].user, \"Must be send by the user.\");\n\n        services[id].remaining_payment = msg.value;\n    }\n\n    function provideTask(uint id) public {\n        require(msg.sender == services[id].user || msg.sender == services[id].provider, \"Must be send by the user or provider.\");\n\n        uint remaining_payment = services[id].remaining_payment;\n\n        uint payment = services[id].payment;\n\n        require(remaining_payment >= payment, \"Too little payment remaining.\");\n\n        uint transferred_payment = services[id].transferred_payment;\n\n        services[id].remaining_payment = remaining_payment.sub(payment);\n\n        services[id].transferred_payment = transferred_payment.add(payment);\n    }\n\n    function withdrawMoney(uint id) public {\n        require(msg.sender == services[id].provider, \"Needs to be service provider.\");\n\n        uint total = services[id].transferred_payment.add(services[id].deposit);\n\n        msg.sender.send(total);\n    }\n}",
  "sourcePath": "/home/nud3l/code/Promise/src/contracts/Promise.sol",
  "compiler": {
    "name": "solc",
    "version": "0.5.12+commit.7709ece9.Emscripten.clang"
  },
  "schemaVersion": "3.0.20",
  "updatedAt": "2020-01-13T22:03:14.282Z",
  "networkType": "ethereum",
  "devdoc": {
    "methods": {}
  },
  "userdoc": {
    "methods": {}
  }
}